:020000040800F2
:10000000504D002045020008493D00080332000819
:10001000473D0008851500086D45000800000000F8
:100020000000000000000000000000007D3E00080D
:10003000B915000800000000033E0008C33E000898
:100040005F0200085F0200085F0200085F0200080C
:100050005F0200085F0200085F0200085F020008FC
:100060005F0200085F0200085F0200085F020008EC
:100070005F0200085F0200085F0200085F020008DC
:100080005F0200085F0200085F0200085F020008CC
:100090005F0200085F0200085F0200085F020008BC
:1000A0005F0200085F0200085F0200085F020008AC
:1000B0005F020008113F00087D3F00085F02000852
:1000C0005F0200085F0200085F0200085F0200088C
:1000D0005F020008414500085F0200085F02000857
:1000E0005F0200085F0200085F0200085F0200086C
:1000F0005F0200085F0200085F0200085F0200085C
:100100005F0200085F0200085F0200085F0200084B
:100110005F0200085F0200085F0200085F0200083B
:100120005F0200085F0200085F0200085F0200082B
:1001300000F002F800F076F80AA090E8000C824483
:100140008344AAF10107DA4501D100F06BF8AFF260
:10015000090EBAE80F0013F0010F18BFFB1A43F0A5
:10016000010318479C7B0000BC7B00000A444FF051
:10017000000C10F8013B13F0070408BF10F8014B06
:100180001D1108BF10F8015B641E05D010F8016B4B
:10019000641E01F8016BF9D113F0080F1EBF10F8AF
:1001A000014BAD1C0C1B09D16D1E58BF01F801CBD2
:1001B000FAD505E014F8016B01F8016B6D1EF9D555
:1001C0009142D6D37047000000230024002500266A
:1001D000103A28BF78C1FBD8520728BF30C148BFAA
:1001E0000B607047662907F0E483642900F0A8805B
:1001F000752900F0A580782900F0DE80632900F0E1
:100200004C84732900F05184002070471FB500F022
:1002100063FC04000020002106F08CFAE0601FBDA2
:1002200010B510BD00F078FD1146FFF7EFFF04F0A8
:10023000F1FB00F096FD03B4FFF7F2FF03BC04F0FE
:1002400026FA00000948804709480047FEE7FEE714
:10025000FEE7FEE7FEE7FEE7FEE7FEE7FEE7FEE776
:1002600004480549054A064B70470000C93E00088E
:100270003101000850470020504D00205049002017
:1002800050490020704700000FB4044910B503AA7C
:10029000029800F00FFC10BC5DF814FB3800002041
:1002A00070B5044685690068C10601D5302600E0B6
:1002B0002026C00707D070BDD4E901213046904701
:1002C000206A401C20626D1EF6D570BD70B50446D4
:1002D00085690078C00707D170BDD4E901212020CD
:1002E0009047206A401C20626D1EF6D570BD70B527
:1002F0000C460546012A05D02878800600D5EA6913
:10030000002302E0012305E05B1C934202D2E05C83
:100310000028F9D1A869E618C01AA861286A18440B
:1003200028622846FFF7BCFF04E0D5E9012114F854
:10033000010B9047B442F8D32846FFF7C7FF70BDC2
:100340002DE9F0410646002410687529314616A5AE
:1003500010D0AFF30080002802DA404213A507E076
:1003600031688A0701D512A502E0490704D511A515
:10037000012401E0AFF3008000210A2206F12407E6
:1003800009E0B0FBF2FCB0FBF2F302FB1C003030E2
:1003900078541846491C0028F3D123462A46304693
:1003A000BDE8F04100F007B9000000002D0000009A
:1003B0002B0000002000000070B504460D462146C9
:1003C0001068AFF300802188090502D50F4A7A44EE
:1003D00002E00E4A7A440E32002104F1240305E0C3
:1003E00000F00F060009965D5E54491C0028F7D105
:1003F00020780023000704D5702D02D009B1022314
:1004000011322046BDE8704000F0D5B838770000C2
:100410002DE9F05F894604464FF0000ADFF874B119
:10042000FB44C0F820A02046E1688847002874D02B
:10043000252806D0D4E901219047206A401C20627B
:10044000F1E700265F462046E168884720280546F8
:1004500007DB312D05D2781910F8200C08B10643BE
:10046000F1E7B00701D526F00406C4F81CA0002768
:10047000C4F818A02A2D09D0284604F001F938B391
:1004800004EB8708303DC8F8185019E059F8041BF0
:10049000204604EB87029161E1688847012F0546F9
:1004A00018D1E069002820DA26F020061DE0D8F8EF
:1004B000180000EB800005EB40003038C8F8180049
:1004C0002046E1688847054604F0DAF80028EED1B6
:1004D000012F0AD02E2D08D12046E16888477F1CC5
:1004E0000546022F46F02006C4DBA069002803DA87
:1004F000404246F00106A061F00701D026F0100648
:100500006C2D0BD0682D09D04C2D39D06A2D35D0EB
:10051000742D35D07A2D33D016E038E0E1682F46BF
:1005200020468847B842054609D16C2F26D04FF4A3
:100530008060E168064320468847054604E06C2F4A
:100540001AD04FF4807006430DB3A5F1410019286D
:1005500002D8203546F400664A46294620462660E1
:100560004E46FFF73FFE80B101280BD0F61D26F066
:10057000070000F1080956E74020E4E78020D8E7AB
:100580000020D6E706F104094DE7284652E7206A25
:10059000BDE8F09F0E7700007047704770477047C6
:1005A00010B500F09DFA006810BD10B5044600F0CB
:1005B00097FA046010BD2DE9F0470D469946924622
:1005C000044600F124080168880604D5E06921F09A
:1005D0001001216000E00120A84201DD471B00E07E
:1005E0000027A1697A1902EB0900081AA061207896
:1005F000C00602D42046FFF753FE002608E0D4E9E7
:1006000001211AF806009047206A401C761C2062DF
:100610004E45F4DB2078C0060AD52046FFF740FEA1
:1006200006E0D4E9012130209047206A401C206276
:10063000381EA7F10107F4DC07E0D4E9012118F81E
:1006400005009047206A401C2062281EA5F1010584
:10065000F3DC2046FFF73AFE2078000602D50220A0
:10066000BDE8F0870120FBE770472DE9FF4F0C46FE
:100670001E464FF0FF378BB0D2E90001DDF86080F5
:100680000A908A46C1F30A5505B93D46002108463D
:100690004FF00000BAF1000F00F4400005DA00EB63
:1006A00080004FF4400101EA50004FEA9059B9F13F
:1006B000010F00DDB9460A9850EA4A000ED044F610
:1006C0001050A5F2FF3545432F14B8F1000F1ED08E
:1006D0007542291E1EDDC9F100021CE0B8F1010FB0
:1006E0004FF0000001D0302103E0F24305E0215437
:1006F000401CB042FBDB30460022002121540B9904
:10070000C1F80880C1E900200FB0BDE8F08FBD1B23
:100710006D1CDEE74A4600DA694206A800F082FA5C
:1007200006AB93E8070003AB83E8070050460A993D
:1007300000F060FB8DE80700A0F500501F38009026
:100740000398002D0ADD42F21F014A4608440023A7
:1007500003A90390684600F0C9FD09E0A0F5005028
:100760004A461F38002303A90390684600F0D3FDD2
:100770008DE807000004000C03D04FF0FF30410863
:1007800000E01046B8F1000F03D000220092154699
:100790001EE0751E05D400F0A7F9303262556D1EBB
:1007A000F9D5B3460122084302D000227F1C04E0A1
:1007B0002078302801D100227F1E002A099784D09A
:1007C0001DE0112D07DA00F08FF9303262556D1CF3
:1007D00050EA0102F5D1084302D00098C8B10EE0FA
:1007E0000021681E05E0235C625C63542254401EB5
:1007F000491C8142F7DBAB46A81B401E0990002034
:1008000004F80B000B98099AC0F80880C0E9002B87
:100810007AE711264FF0000857E72DE9F04F884698
:100820000446D21D22F0070191B0D1E90001CDE9C3
:100830000A0103F09CFE02460B98C00F01D02D2048
:1008400007E02068810701D52B2002E0202101EA82
:10085000C000032A099001D0072A05DB0346414660
:10086000204600F09FF90BE12078800601D5E06971
:1008700000E00620B8F1650F814606D0B8F1660F9A
:1008800018D0B8F1670F70D131E00020B9F1110F25
:10089000009001DB112301E009F101030AAA01A97B
:1008A0000CA8FFF7E2FEDDE90C70002609F1010556
:1008B000834647E001204B4600904FF000470AAACC
:1008C00001A90CA8FFF7D1FEDDE90DB00C995D463A
:1008D000002610B909F101000D18B9EB050003D489
:1008E000C0F1FF3609F10105A5EB09002BE0B9F1D4
:1008F000010F01DA4FF001090020B9F1110F00904A
:10090000484601DD112300E003460AAA01A90CA80C
:10091000FFF7ABFEDDE90C704D46002683462078DC
:1009200000070AD4AB4500DA5D4601A8012D04DDBD
:10093000411911F8011C302907D04F4502DA17F18F
:10094000040F04DA012082460FE06D1EEEE7002F4F
:1009500002DCED1B3E4403E0781CA84200DD7D1C58
:10096000B81B00F1010A4FF000472078000703D4BC
:10097000AA4501DB4FF0FF3A0021B7F1004F0DF11E
:1009800043088DF8431024D002202B23002F01DAD6
:100990007F422D230A21021EA0F1010000DC5FB17D
:1009A00097FBF1FC97FBF1F201FB1C7C17460CF165
:1009B000300C08F801CDEEE7A8F1010003702188A2
:1009C000090501D5452100E06521A0F1010800F8E5
:1009D000011C09980FA9A1EB0807FF1D00B1012018
:1009E000411901EBEA70A1693844081A401EA06160
:1009F0002078C00602D42046FFF752FC099828B19F
:100A0000D4E901219047206A401C20622078C0066A
:100A100022D52046FFF744FC1EE0002E04DBB34540
:100A200002DD01A8805D00E03020D4E9012190477B
:100A3000206A401C2062761CAAF101005FEA000ACD
:100A40000AD100F049F8C0680168405CD4E901218E
:100A50009047206A401C2062281EA5F10105DCDCBD
:100A600007E0D4E9012118F8010B9047206A401CE7
:100A70002062381EA7F10107F3DC2046FFF726FCB1
:100A8000032011B041E610B5436913B1AFF3008004
:100A900001E0FFF72CFC012010BD127800F12401C9
:100AA0000A7000224A700122EDE711684FF0FF3210
:100AB000E9E70000074B70B50D467B4400F05FF896
:100AC0000446284600F020F910B14FF0FF3070BD09
:100AD000204670BD973C000000487047104700203A
:100AE00000487047F046002030B5B0F10A024FEAE6
:100AF000900E71F100034EEA817EB0EB0E0061EBC7
:100B000091014FEA101E4EEA017E10EB0E0041EB00
:100B100011114FEA102E4EEA016E10EB0E0041EB60
:100B200011214FEA104E4EEA014E10EB0E0041EB40
:100B30001141401841F100014FEAD00040EA4170F4
:100B40004FEAD10110EB80054FEA810444EA90742A
:100B500044EB01046D1944EB0404521BA3414FF014
:100B6000000348BF0A3200D530BD401C41F10001EE
:100B700030BD000001694A1C02610878704700B569
:100B80008FB0CDE901310021059105497944CDE9C6
:100B9000031011466846FFF73BFC0FB000BD000094
:100BA000E5FFFFFF2DE9F0411F46044603260168DB
:100BB000072A01F4006004DB08B116A505E016A5BC
:100BC00003E008B115A500E015A521F01000206094
:100BD000A069C01EA0610FB1401EA0612046FFF7B2
:100BE0005FFB4FB1D4E9012138469047206A401C91
:100BF0002062C01C206206E0206AFAE7D4E90121E5
:100C000015F8010B9047761EF8D22046FFF75EFBE1
:100C1000BDE8F0814E414E006E616E00494E4600C7
:100C2000696E66002DE9F047814616468AB0354860
:100C300078440DC88DE80D0032487844801C03AC20
:100C40000DC884E80D0041F69B300844372190FB25
:100C5000F1F290FBF1F5A5F1800501FB12041B3CBC
:100C600002D56442012000E00020DFF898A0804611
:100C70000027FA44AAF1BE0A0EE0E0070AD0324685
:100C8000684607EB470101230AEB810100F043FBB3
:100C90008DE8070064107F1C002CEED1194F7F44B3
:100CA000AE3F19E0E80715D007EB04100DF1180A64
:100CB00090E80E008AE80E00C068F04201D1981951
:100CC00008903246012306A903A800F024FB03ABD9
:100CD00083E807006D10641C002DE3D14FF0010381
:100CE00032466946B8F1000F03A802D000F0FEFAC0
:100CF00001E000F010FBC9E90001C9F808200AB0C2
:100D0000BDE8F08720700000007B00F08000704795
:100D100000487047F04600207546FFF7F9FFAE46E1
:100D200005006946534620F00700854618B020B5F7
:100D3000FFF796FABDE820404FF000064FF000079D
:100D40004FF000084FF0000B21F00701AC46ACE873
:100D5000C009ACE8C009ACE8C009ACE8C0098D46E0
:100D6000704710B50446AFF300802046BDE8104040
:100D7000FFF761BA4FF0013C50F8042B51F8043BE7
:100D80009A4221D1A2EB0C03934313EACC1317D15F
:100D900050F8042B51F8043B9A4215D1A2EB0C03F6
:100DA000934313EACC130BD150F8042B51F8043BB6
:100DB0009A4209D1A2EB0C03934313EACC13DBD084
:100DC0004FF00000704700BFD01A01BAB1FA81F1AC
:100DD00001F0180122FA01F0CB40C1F12001DBB291
:100DE000C0B2C01A2CFA01F3D11A914311EAC3110F
:100DF000E6D170475FEA400C08BF91F0000F4FEA60
:100E00008C234FEAC12243EA51514FEA1C5018BFCC
:100E100000F5F0404FEA300018BF41F000415FEAB2
:100E20006C5C00F02980BCF1FF3F08BF40F08040BF
:100E30007047130C06BF12044FF0100C4FF0000C5B
:100E4000130E04BF12020CF1080C130F04BF1201A1
:100E50000CF1040C930F04BF92000CF1020CD30FA1
:100E600004BF52000CF1010C11464FF00002A0F13A
:100E70001F00A0EB0C00704711F0004F08BF704737
:100E800031F000413FF4D5AF0B0C06BF09044FF021
:100E9000100C4FF0000C0B0E04BF09020CF1080CF3
:100EA0000B0F04BF09010CF1040C8B0F04BF890068
:100EB0000CF1020CCB0F04BF49000CF1010CCCF17A
:100EC0002003A0EB0C0022FA03F302FA0CF241EA31
:100ED000030100F10100704720F07F4C80EA03001D
:100EE00023F07F47ACEB070303F57C5300F0004091
:100EF00003F1FF032DE980494FEA154B09B44FEA8E
:100F0000144325EA0B4E24EA03480FF2042606EBAD
:100F1000132749083E785FEA320203FB0667C7F5EC
:100F2000000707FB06F64FEA54374FEAD64606F1AC
:100F3000020607FB066CCCF1005C4FEA1C472CEA6A
:100F4000074C07FB06F40CFB06F504EB15464FEACD
:100F5000961634BF00204FF000404FEAD13706FB11
:100F600007FC4FEA1C4C0CFB0BF7D21B03FB0CF7E6
:100F700061EB07010CFB0EF7B0EB074072EB174279
:100F80000CFB08F734BFA2EB0742B2EB074261EB60
:100F900017414FEA0C444FEA910706FB07FC4FEA62
:100FA0001C4C0CFB0BF7B0EBC74072EB573203FB4A
:100FB0000CF734BFA2EBC742B2EBC74261EB57312B
:100FC0000CFB0EF7B0EBC70072EB57720CFB08F787
:100FD00034BFA2EBC702B2EBC70261EB5771039FAC
:100FE0004FEA816141EA921104EBCC044FEAD13718
:100FF0004FEA826206FB07FC42EA90124FEA8060E9
:101000004FEA1C4C0CFB0BF7D21B03FB0CF761EBFC
:1010100007010CFB0EF7B0EB074072EB17420CFB1D
:1010200008F734BFA2EB0742B2EB074261EB17416E
:101030004FEA8C554FEA910704EB9C2406FB07FC12
:101040004FEA1C4C0CFB0BF7B0EBC74072EB57326E
:1010500003FB0CF734BFA2EBC742B2EBC74261EB14
:1010600057310CFB0EF7B0EBC70072EB57720CFB5D
:1010700008F734BFA2EBC702B2EBC70261EB5771AE
:1010800015EB4C254FEA816141EA92114FEA8262E9
:101090004FEAD13742EA901206FB07FC44F1000404
:1010A0004FEA80604FEA1C4C0CFB0BF7D21B03FB92
:1010B0000CF761EB07010CFB0EF7B0EB074072EB8E
:1010C00017420CFB08F734BFA2EB0742B2EB074212
:1010D00061EB174115EB1C154FEA813141EA924152
:1010E0004FEA823242EA90424FEA80304FEA0C7671
:1010F00044F1000448EA03434EEA0B484FF0000E67
:10110000B2EB080C71EB030724BF624639464EEB85
:101110000E0E4FF0000B0018524149414BEB0B0BE8
:10112000B2EB080C71EB03077BF1000B24BF6246A6
:1011300039464EEB0E0E4FF0000B0018524149415C
:101140004BEB0B0BB2EB080C71EB03077BF1000BC5
:1011500024BF624639464EEB0E0E51EA020718BF15
:1011600046F0010616EB0E7655F1000254F100012F
:1011700003D5BDE88901BDE80088BDE88901BDE867
:101180000048B619524141EB0101A3F10103704738
:1011900080807F7E7D7C7B7A7978777676757473B4
:1011A000727171706F6E6E6D6C6C6B6A6A69686873
:1011B000676666656464636362616160605F5F5E09
:1011C0005E5D5D5C5C5B5B5A5A595958585757567F
:1011D00056555555545453535252525151505050E4
:1011E0004F4F4F4E4E4D4D4D4C4C4C4B4B4B4A4A36
:1011F0004A4949494848484747474746464645457A
:1012000045444444444343434342424242414141B2
:10121000002B9C4630D477002BD01CB54FEA370703
:1012200003B44FF010004FF01001BAF1000F06D0D8
:10123000BCF1000FDCBF40F0080040F008014FF0A7
:1012400000000FBCBDE810400BF1010BBBF1010F1A
:1012500008BF5FEA170722BF12F1010211F1010175
:101260004FF0004143F1000300F0004043EA00006A
:101270007047F9D35708D0E746EA064613F1400F06
:101280004FEA16461FDD13F1200FDFBF16430A4653
:10129000002120335B42BED0C3F1200746EA064658
:1012A00002FA07F74FEA164646EA0706C3F1200797
:1012B00022FA03F201FA07F721FA03F14FF00003D3
:1012C00042EA0702A7E746EA020646EA06464FEA6E
:1012D000164646EA0106BCBF46EA0646360C4FF003
:1012E00000034FF000024FF0000194E72DE9804C1D
:1012F0009A46934670B491E8380007C831EA400C2A
:1013000048BF34EA430C03D5FFF7E6FDFFF780FF43
:10131000F0BCBDE8008C2DE9804C9A46934670B431
:1013200091E8380007C810F0804F08BF13F0804FD5
:1013300003D100F005F8FFF76BFFF0BCBDE8008CAF
:1013400020F07F4780EA030023F07F4C07EB0C037B
:10135000A3F57C5300F00040A3F1FE0392F0000FD0
:1013600000F0B38095F0000F00F077802DE901497F
:101370004FEA11404FEA144621EA004800FB06FC00
:1013800024EA064708FB06F607FB08F800FB07F708
:1013900018EB06484CEB164C4FEA124B18EB07487B
:1013A0004FEA15464CEB174022EA0B4E0BFB06FCAE
:1013B00025EA06470EFB06F607FB0EFE0BFB07F7BA
:1013C0001EEB064E4CEB164C4FF000061EEB074E84
:1013D0004CEB174B18EB0B0840F1000018EB0E0B11
:1013E00058EB000840F100008F1A4FF000013CBF9D
:1013F000C943661B14BFB5EB040C00213CBFC943B5
:10140000F61B4FEA17444EEA8E0E27EA04454FEAD0
:101410001C4704FB07622CEA074C05FB07F70CFB93
:1014200005F604FB0CFC16EB074642EB174216EBE5
:101430000C4642EB1C421BEB060658EB02024141F4
:1014400046EA9E0601D5BDE80189B619524141EB35
:101450000101A3F10103BDE801894FEA14454FEAF8
:10146000114724EA054621EA074C05FB07F406FB71
:1014700007F70CFB06F105FB0CFC11EB074144EBF5
:1014800017444FEA124711EB0C4144EB1C4422EA8B
:10149000074C05FB07F206FB07F70CFB06F605FBFE
:1014A0000CFC16EB074642EB174216EB0C4642EBE0
:1014B0001C456A1854F1000148BF7047B6195241E3
:1014C00041EB0101A3F10103704795F0000F37D004
:1014D0004FEA11424FEA144721EA024624EA074C38
:1014E00002FB07F106FB07F70CFB06F402FB0CFC02
:1014F00014EB074441EB17414FEA154714EB0C443A
:1015000041EB1C4125EA074C02FB07F506FB07F7F8
:101510000CFB06F602FB0CFC16EB074645EB1745E9
:1015200016EB0C4645EB1C42121951F1000148BF65
:101530007047B619524141EB0101A3F10103704715
:101540004FEA14454FEA114724EA054621EA074CC1
:1015500005FB07F106FB07F70CFB06F24FF0000650
:1015600005FB0CFC12EB074241EB174112EB0C425E
:1015700051EB1C4148BF7047921841EB0101A3F1A8
:1015800001037047FEE7411A01F121026FF00500E7
:10159000032A06D34A1C032A03D31F39032900D385
:1015A00000207047007D00F04000002802D06FF05E
:1015B0000600704700207047704700002DE9F34F88
:1015C000BDB08146B9F8400000F00F05C0F303112B
:1015D0000191C0F3032B1E2101EB1034B9F842A096
:1015E000002022AB810000F1220239F8122002F023
:1015F0000F0643F821604E1CC2F3031743F8267010
:101600008E1CC2F3032743F82670120BC91C43F843
:101610002120401C0628E5DB002053F82010072974
:1016200002DD103943F82010401C1828F5DB00209B
:1016300002AE810000F1280239F8122002F00F07F3
:1016400046F8217001F1010CC2F3031746F82C7023
:1016500001F1020CC2F3032746F82C70120BC91CCF
:1016600046F82120401C0828E3DB002056F8201013
:10167000072902DD103946F82010401C2028F5DB30
:101680004FF000080120A84005F0B6FF3C9020462E
:1016900005F0F0FACDE93A10002707EB481404F101
:1016A000400039F81000C0F3051005F0BDFF3E9969
:1016B00001EB840670641F49884204DD4FF08541C8
:1016C00006F002F970643C98716C05F0F5FF044671
:1016D00022A8019950F8280000FA0BF000EB0A024A
:1016E00002A850F827008840104405F085FF2146E5
:1016F00005F04CFE7064DDE93A3200204FF0804185
:1017000003F032FB04460D46706C05F013FE2246D2
:101710002B4605F013F905F023F870647F1C202F89
:10172000BBDB08F10108B8F1180FB5DB3FB0BDE82D
:10173000F08F00000000F8412DE9FE430D46818A3C
:1017400001F40061090981F08006B0F86A4004F0F4
:101750003F0005F069FF009023490098884205DDAD
:101760004FF08541009806F0AFF800906FF003014C
:10177000009806F080F90090C4F3841005F054FF3F
:101780000190DFF8688001984FF08447404504DD00
:101790003946019806F098F801904FF0FF31019812
:1017A00006F069F90190E00A05F03EFF0290029808
:1017B000404504DD3946029806F086F802906FF045
:1017C0000201029806F057F9029085F8256005F5A8
:1017D000005505F525650098286001986860029815
:1017E000A860BDE8FE8300000000F84100007041E1
:1017F0002DE9FE4F04460F46B4F840001B2101EBD3
:101800001035B4F87410C1F30900ADF80000B0F55C
:10181000007F03DBA0F58060ADF80000880AADF81A
:1018200002001F2802DD4038ADF80200BDF80200BA
:10183000BDF800100844ADF80200B4F87200C0F31F
:10184000090005F0F1FE01904D490198884205DD3F
:101850004FF08941019806F037F80190284605F0CD
:1018600009FA02460B464FF080490020494603F032
:101870007BFA05460E46019805F05CFD2A46334684
:1018800005F05CF804F06CFF0190B4F87200800A77
:1018900005F0CAFE02903B490298884205DD4FF0F0
:1018A0008541029806F010F802906FF00601029848
:1018B00006F0E1F84FF07E5105F068FD019905F062
:1018C000FBFE029094F8760005F0AEFE8246DFF84B
:1018D000B8804FF0874BC24504DD5946504605F0AD
:1018E000F3FF824694F87000C0F30310083005F04F
:1018F000C1F902460B460020494603F035FA054679
:101900000E46504605F016FD2A46334605F016F8F9
:1019100004F026FF3862B4F87600000A05F084FE71
:101920000646464504DD5946304605F0CDFF0646DD
:10193000B4F87000C0F3032005F09CF902460B4692
:101940000020494603F010FA04460D46304605F0E3
:10195000F1FC22462B4604F0F1FF04F001FFF86190
:1019600007F5005707F64427019838600298786019
:10197000BDF800003881BDF802007881BDE8FE8F17
:101980000080FF430000F8410000FE422DE9F041D5
:1019900007460B4600210025002400204FF6FF7665
:1019A00003EB410202F50052A2F85C6AA2F8666AF3
:1019B000491C89B20529F3D300214FF4407610E089
:1019C00001F1400237F81220BAB1D20707D003EB79
:1019D000440202F50052A2F8661A641CA4B2491C23
:1019E00089B2B14203D2052D01D2052CE8D3042DD2
:1019F0000CD96FF00200BDE8F08103EB450202F55F
:101A00000052A2F85C1A6D1CADB2E8E7042C02D9B2
:101A10006FF00300EFE72919042902D96FF00400E1
:101A2000E9E7002716E07E1C03EB470808F500589D
:101A30000CE003EB460000F50050B0F85C1AB8F873
:101A40005C0AFFF7A0FD0028D5D1761CAE42F0DB82
:101A50007F1CBFB2AF42E6D3002716E07E1C03EB2B
:101A6000470808F500580CE003EB460000F500506D
:101A7000B0F8661AB8F8660AFFF785FD0028BAD1F3
:101A8000761CA642F0DB7F1CBFB2A742E6D300273C
:101A900016E0002603EB470808F500580CE003EBBE
:101AA000460000F50050B0F8661AB8F85C0AFFF777
:101AB0006AFD00289FD1761CA642F0DB7F1CBFB2D6
:101AC000AF42E6D397E7B0F96000B0F5004F00DB16
:101AD00000B288827047000010B50C46B0F878005C
:101AE000000A05F0A1FD0649884203DD4FF0874159
:101AF00005F0EAFE6FF00C0105F0BDFFA06210BD1D
:101B00000000FE422DE9F04105460C467A35A888D2
:101B1000C0F3013000EB800040002C346FF027014F
:101B20002182002161822979C1F30311A182AA884F
:101B3000C2F303224143A18202FB0010E082287914
:101B400000F00F00083001268640287805F06CFD73
:101B500020602888000A05F067FD6060A87805F01D
:101B600063FDA0606888000A05F05EFDE0602C3C23
:101B700000250C4F304605F03FFD804604EB8506FE
:101B8000F06AB84204DD4FF0874105F09DFEF06237
:101B90004146F06A05F06EFCF0626D1C042DEDDB31
:101BA000BDE8F0810000FE422DE9F34F85B081468B
:101BB000B9F86C1041F307207F2800DD40B28DF8A2
:101BC000040048B27F2800DD40B28DF80600B9F865
:101BD0006E1041F307207F2800DD40B28DF805002C
:101BE00048B27F2800DD40B28DF8070099F87000F8
:101BF000C0F30314083400F00F014FF00008012077
:101C0000DFF8C8A00DF1040B884005F0F5FC049046
:101C1000204605F02FF8CDE90210002707EB481405
:101C2000E01704EBD06104EB90608011400040426B
:101C300000EB611004EBD47121F00101611A01EB9A
:101C40004000C5B204F1400019F81000C0F3420092
:101C500005F0EAFC069901EB840606F58056C6F805
:101C60004402504505DD4FF0824105F02DFEC6F8D7
:101C7000440206F511760498316805F01DFD04460E
:101C80001BF9050005F0B8FC214605F07FFB30602C
:101C9000DDE9023200204FF0804103F065F8044690
:101CA0000D46306805F046FB22462B4604F046FE02
:101CB00004F056FD30607F1C202FAFDB08F10108D7
:101CC000B8F1180FA9DB07B0BDE8F08F0000404065
:101CD0002DE9FE4F8A46B0F86820110B072901DD77
:101CE000103949B28DF80010C2F30321072901DD34
:101CF000103949B28DF80210C2F30311072901DD32
:101D0000103949B28DF8011002F00F01072901DDE9
:101D1000103949B28DF80310B0F87000C0F30320F9
:101D20000027E94604F0A6FFCDE901104FF0804BF3
:101D3000002606EB4714E01704EBD06104EB90603B
:101D400080114000404200EB611004EBD47121F09F
:101D50000101611A01EB4000C0B219F9000005F061
:101D60004BFC0AEB840808F58058C8F8440EDDE9FE
:101D700001320020594602F0F7FF04460D46D8F81C
:101D8000440E05F0D7FA22462B4604F0D7FD04F0A6
:101D9000E7FCC8F8440E761C202ECADB7F1C182FE7
:101DA000C6DBBDE8FE8F2DE9F04FB8B0028C02F023
:101DB0000F09C2F30317C2F3032BB0F92250B5F594
:101DC000004F00DB2DB200220DF1800E930002F1D6
:101DD000120430F8144004F00F064EF8236003F1AB
:101DE000010CC4F303164EF82C6003F1020CC4F38B
:101DF00003264EF82C60240BDB1C4EF82340521CAB
:101E0000062AE3DB00225EF82230072B02DD103BBE
:101E10004EF82230521C182AF5DB0022EA469300C5
:101E200002F1180430F8144004F00F064AF8236059
:101E30005E1CC4F3031C4AF826C09E1CC4F3032C8A
:101E40004AF826C0240BDB1C4AF82340521C082AFF
:101E5000E5DB00225AF82230072B02DD103B4AF85E
:101E60002230521C202AF5DB002300225EF823805A
:101E700008FA0BF802EB431404F1400601EB4404AA
:101E800030F81660B60AA4F8446C1F2E02DD403EFE
:101E9000A4F8446CB4F8446C06FA09F63AF822C087
:101EA0002E440CFA07FCC4446644A4F8446C521C4B
:101EB000202ADFDB5B1C182BD7DB38B0BDE8F08FA6
:101EC0002DE9F04180460C46B8F86450A80A05F0A8
:101ED000ABFB1A49884203DD4FF0854105F0F4FC65
:101EE0006FF00B0105F0C7FD0646C5F3090005F0CC
:101EF0009BFB1349884203DD4FF0894105F0E4FC68
:101F00006FF0020105F0B7FD0746B8F86250B8F867
:101F1000200000F4704004F0ADFE0022094B04F0F4
:101F20000DFD0022084B04F04DFC04F019FC666026
:101F3000A760A5812061BDE8F08100000000F841A4
:101F40000080FF430000D04000002040B0F8700047
:101F5000C0F3013081F824007047000010B50C4632
:101F600090F8780005F060FB0649884203DD4FF0E9
:101F7000874105F0A9FC6FF0040105F07CFDA0612C
:101F800010BD00000000FE42B0F86620100A7F2855
:101F900002DDA0F5807000B24001D2B2A2F58072DD
:101FA0004FF4604303EB421208804A80704731B51A
:101FB00000F01EF9044600F01BF90099001B88424E
:101FC000F9D338BD2DE9F84F00230024DFF8DC9168
:101FD0004FF00F0809F1040A0AF1040B0BF1040E8B
:101FE0000127A7400A683A40BA4275D1DFF8C0C15C
:101FF0004D68A5EB0C0665452BD00DDC032D34D0C8
:1020000005DC35B3012D19D0022D2FD11BE0112D88
:1020100016D0122D2AD119E0B6F5881F19D006DC8A
:10202000B6F5803F15D0B6F5801F1FD111E0B6F58B
:10203000001F0ED0B6F5041F18D10AE0CB6815E0DA
:10204000CB681B1D12E0CB6808330FE0CB680C3364
:102050000CE08B6823B1012B04D00823476105E015
:10206000042303E00823076100E00023FF2A01D8CE
:10207000054601E000F1040502D84FEA840603E0BA
:10208000A4F108064FEA86062F6808FA06FC27EA3C
:102090000C0703FA06F647EA06072F604D68ED00C5
:1020A0007ED5444DAE6946F00106AE61AD6905F0DE
:1020B00001050095404D24F003067719BE68A50779
:1020C0002D0F08FA05FC26EA0C06DFF8F0C0604583
:1020D00003D14FF0000C25E062E0DFF8E4C060457A
:1020E00002D14FF0010C1DE0DFF8D8C0604502D1ED
:1020F0004FF0020C16E0DFF8D0C0604502D14FF07F
:10210000030C0FE0DFF8C4C0604502D14FF0040CAF
:1021100008E0DFF8BCC0604502D14FF0050C01E0DB
:102120004FF0060C0CFA05FC4CEA060CC7F808C088
:102130004D68ED0305D5D9F800501543C9F8005096
:1021400004E0D9F800509543C9F800504D68AD033C
:1021500005D5DAF800501543CAF8005004E0DAF863
:1021600000509543CAF800504D68ED0205D5DBF8E4
:1021700000501543CBF8005004E0DBF800509543C5
:10218000CBF800504D68AD0205D5DEF80050154380
:10219000CEF8005004E0DEF800509543CEF8005031
:1021A000641C102CFFF41CAFBDE8F88F0004014044
:1021B0000000111000100240000001400008014022
:1021C000000C0140001001400014014000180140C3
:1021D000001C01408068084201D0012070470020A7
:1021E0007047002A01D001617047090401617047FE
:1021F00001480068704700002C0000200248016878
:10220000491C0160704700002C00002010B50748F1
:10221000016841F010010160052000F047F80F202F
:1022200000F006F800F015F8002010BD0020024074
:1022300010B5044600F03CF94FF47A72B0FBF2F0AE
:1022400000F0B3FC00222146501E00F00FF80020E1
:1022500010BD704700F01F0201219140400980002D
:1022600000F1E020C0F8001170470000F0B40D4606
:102270000D4B1B68C3F30223C3F10704042C00D9E0
:102280000424191D072901D2002300E0DB1E0126CA
:1022900006FA04F1491E294099409E40761E1640D8
:1022A0003143F0BC01F051BD0CED00E000F007013E
:1022B000054A10684FF6FF03184040EA0120034921
:1022C00008431060704700000CED00E00000FA05C4
:1022D0002DE9F04704460E46DFF8C481D8F8000027
:1022E00000F00700B0420FD2D8F8000020F007003D
:1022F0003043C8F80000D8F8000000F00700B042F2
:1023000002D00120BDE8F0872078664F800705D510
:102310007868A16820F0F000084378602078C00752
:1023200068D06068012201280CD0022822D0022344
:1023300093FAA3F1B1FA81F141F02001490931D0BA
:10234000396830E04FF4003393FAA3F1B1FA81F128
:1023500041F02001490901D0396800E0796A93FA17
:10236000A3F3B3FA83F303F01F039A40114225D17C
:102370000120C7E74FF0007393FAA3F1B1FA81F19E
:1023800041F02001490901D0396800E0796A93FAE7
:10239000A3F3B3FA83F303F01F039A4011420DD164
:1023A0000120AFE7796A93FAA3F3B3FA83F303F05A
:1023B0001F039A40114201D10120A3E7796821F05F
:1023C000030101437960FFF713FF0546606841F29E
:1023D0008839012809D0022814D020E0FFF708FF2F
:1023E000401B484501D903208CE77868C0F3810081
:1023F0000128F3D117E0FFF7FBFE401B484501D948
:1024000003207FE77868C0F381000228F3D10AE057
:10241000FFF7EEFE401B484501D9032072E77868BC
:1024200010F00C0FF4D1D8F8000000F00700B04213
:102430000ED9D8F8000020F007003043C8F800009B
:10244000D8F8000000F00700B04201D0012059E7A1
:102450002078400705D57868E16820F4E0600843FB
:1024600078602078000706D57868216920F46050EC
:1024700040EAC100786000F04DF87968F02292FAE5
:10248000A2F201F0F001B2FA82F2D140064A515CA8
:10249000C840064908600F20FFF7CAFE002031E758
:1024A0000020024000100240F27A000828000020BC
:1024B00001480068704700002800002000B5FFF7C1
:1024C000F7FF074949684FF4E06292FAA2F201F47B
:1024D000E061B2FA82F2D140024A515CC84000BDCC
:1024E00000100240027B000800B5FFF7E1FF07493A
:1024F00049684FF4605292FAA2F201F46051B2FAC4
:1025000082F2D140024A515CC84000BD0010024036
:10251000027B000810B585B01AA0D0E90031D0E9DF
:102520000220CDE90131CDE903201AA00068009016
:10253000194B5968194801F00C02042A1DD0082AC9
:102540001BD14FF4701494FAA4F401F47012B4FA8D
:1025500084F4E24001ACA25CC90310D559684FF481
:10256000003393FAA3F301F40031B3FA83F3D940B3
:102570001DF80110B0FBF1F0504305B010BD084844
:102580005043FAE702030405060708090A0B0C0D7D
:102590000E0F1010010200000010024000127A001D
:1025A00000093D002DE9F84F0446F84F20784FF020
:1025B0000105C00754D078686E04C0F3810001287B
:1025C00007D07868C0F3810002281CD17868C00366
:1025D00019D596FAA6F0B0FA80F040F02000400934
:1025E00001D0386800E0786A96FAA6F1B1FA81F174
:1025F00001F01F0105FA01F1084272D0606878BB52
:102600000120BDE8F88F6068B0F5803F11D0A8B117
:10261000B0F5A02F1BD0386820F4803038603868BF
:1026200020F4802038606068C8B3FFF7E1FD804681
:102630001FE0386840F480303860F4E7386820F4F0
:1026400080303860386820F480203860EBE73868E4
:1026500040F480203860386840F480303860E2E729
:102660003FE0FFF7C5FDA0EB0800642801D9032077
:10267000C7E796FAA6F0B0FA80F040F020004009D3
:1026800001D0386800E0786A96FAA6F1B1FA81F1D3
:1026900001F01F0105FA01F10842E2D021E0FFE755
:1026A000FFF7A6FD804607E0FFF7A2FDA0EB0800BC
:1026B000642801D90320A4E796FAA6F0B0FA80F0C6
:1026C00040F02000400901D0386800E0786A96FAAE
:1026D000A6F1B1FA81F101F01F0105FA01F10842FA
:1026E000E2D12078DFF8A88280074FF0000A4FF08F
:1026F000020632D578684FF0F80B10F00C0F07D0B7
:102700007868C0F38100022828D17868C00325D4F6
:1027100096FAA6F0B0FA80F040F02000400901D00F
:10272000386800E0786A96FAA6F1B1FA81F101F012
:102730001F0105FA01F1084204D02069012801D0E7
:1027400001205EE738689BFAABF220F0F80160697F
:10275000B2FA82F29040014339605CE0206990B3A4
:1027600095FAA5F0B0FA80F048F82050FFF740FD48
:10277000814607E0FFF73CFDA0EB0900022801D9E4
:1027800003203EE796FAA6F0B0FA80F040F0200071
:10279000400901D0386800E0786A96FAA6F1B1FAEB
:1027A00081F101F01F0105FA01F10842E2D0386819
:1027B0009BFAABF220F0F8016069B2FA82F2904025
:1027C0000143396027E0FFE795FAA5F0B0FA80F001
:1027D00048F820A0FFF70CFD814607E0FFF708FD51
:1027E000A0EB0900022801D903200AE796FAA6F017
:1027F000B0FA80F040F02000400901D0386800E0D5
:10280000786A96FAA6F1B1FA81F101F01F0105FA92
:1028100001F10842E2D12078000770D5A069C0B369
:1028200095FAA5F0B0FA80F008EB8000C0F880546B
:10283000FFF7DEFC814607E0FFF7DAFCA0EB0900BA
:10284000022801D90320DCE696FAA6F0B0FA80F05F
:1028500040F06000B5EB501F01D138680BE096FAEC
:10286000A6F0B0FA80F040F06000B6EB501F01D146
:10287000386A00E0786A96FAA6F1B1FA81F101F0BF
:102880001F0205FA02F10842D6D00120FFF78FFBA4
:1028900035E0FFE795FAA5F0B0FA80F008EB80008C
:1028A000C0F880A4FFF7A4FC814607E0FFF7A0FC76
:1028B000A0EB0900022801D90320A2E696FAA6F0AF
:1028C000B0FA80F040F06000B5EB501F01D13868DD
:1028D0000BE096FAA6F0B0FA80F040F06000B6EB9C
:1028E000501F01D1386A00E0786A96FAA6F1B1FA71
:1028F00081F101F01F0205FA02F10842D6D12078D9
:10290000400771D5F86940F08050F861F86900F02F
:1029100080500090DFF87CB0DBF8000040F480705D
:10292000CBF80000FFF764FC814607E0FFF760FC8E
:10293000A0EB0900642801D9032062E6DBF800005F
:10294000C005F3D5E068012812D0B0B1052823D026
:10295000386A20F001003862386A20F004003862DA
:10296000E06841F2883B98B3FFF742FC814624E0DF
:10297000386A40F001003862F2E7386A20F001005E
:102980003862386A20F004003862E9E7001002403B
:102990000000424200700040386A40F00400386293
:1029A000386A40F001003862DAE7FFF721FCA0EB5B
:1029B0000900584501D9032023E696FAA6F0B0FA9B
:1029C00080F040F04000B5EB501F02D138680DE0B8
:1029D00017E096FAA6F0B0FA80F040F04000B6EBAF
:1029E000501F02D1386A01E038E0786A96FAA6F101
:1029F000B1FA81F101F01F0205FA02F10842D4D0C8
:102A00002CE0FFF7F5FB814607E0FFF7F1FBA0EBB9
:102A10000900584501D90320F3E596FAA6F0B0FA6B
:102A200080F040F04000B5EB501F01D138680BE05A
:102A300096FAA6F0B0FA80F040F04000B6EB501FD6
:102A400001D1386A00E0786A96FAA6F1B1FA81F10C
:102A500001F01F0205FA02F10842D6D1E06980B305
:102A60007968C1F38101022970D04FF080794FF06D
:102A70000076022809D099FAA9F0B0FA80F048F857
:102A800020A0FFF7B5FB044668E099FAA9F0B0FA78
:102A900080F048F820A0FFF7ABFB824607E0FFF785
:102AA000A7FBA0EB0A00022801D90320A9E596FAAA
:102AB000A6F0B0FA80F040F02000400902D038685B
:102AC00001E060E0786A96FAA6F1B1FA81F101F0CE
:102AD0001F0105FA01F10842E1D1206AB0F5803FFB
:102AE00005D17868A16820F4003008437860D4E903
:102AF00008010843796821F474110843786099FA51
:102B0000A9F0B0FA80F048F82050FFF771FB0446B6
:102B100006E0FFF76DFB001B022801D9032070E5DA
:102B200096FAA6F0B0FA80F040F02000400901D0FB
:102B3000396800E0796A96FAA6F0B0FA80F000F001
:102B40001F0005FA00F00142E3D01CE01DE0FFF792
:102B50004FFB001B022801D9032052E596FAA6F08C
:102B6000B0FA80F040F02000400901D0396800E060
:102B7000796A96FAA6F0B0FA80F000F01F0005FA24
:102B800000F00142E3D100203BE5012039E54FF0A0
:102B9000E021042804D0086920F00400086170478F
:102BA000086940F004000861704710B5401EB0F19C
:102BB000807F01D3012010BD4FF0E02460610F2120
:102BC000601701F0C2F80020A061072020610020FA
:102BD00010BD7047704710B50446002C03D094F820
:102BE000390010B107E0012010BD002084F8380042
:102BF000204600F00DF8022084F83900211D2068DD
:102C000001F0D6F9012084F83900002010BD000041
:102C100008B500680B49884212D10B48C16941F0E0
:102C20000201C161C06900F002000090032201218D
:102C30001D20FFF71BFBBDE808401D20FFF70ABB66
:102C400008BD000000040040001002400168CA688E
:102C500042F00102CA600068016841F001010160B0
:102C600000207047704770B50446206801694FF036
:102C70000005C943890716D4C168C943890712D41E
:102C8000E91E01610120207620688069800703D059
:102C90002046FFF7E7FF05E0204600F09BF82046BE
:102CA00000F04EF9257620680169C943490718D418
:102CB000C168C943490714D46FF0040101610220BF
:102CC00020762068806910F4407F03D02046FFF70B
:102CD000C9FF05E0204600F07DF8204600F030F9FD
:102CE000257620680169C943090717D4C168C9431B
:102CF000090713D46FF008010161042020762068D1
:102D0000C069800703D02046FFF7ACFF05E02046EE
:102D100000F060F8204600F013F92576206801697C
:102D2000C943C90618D4C168C943C90614D46FF091
:102D300010010161082020762068C06910F4407FEE
:102D400003D02046FFF78EFF05E0204600F042F852
:102D5000204600F0F5F8257620680169C943C907C7
:102D600008D1C168C943C90704D1891E0161204641
:102D700000F004F920680169C943090609D4C16853
:102D8000C943090605D46FF0800101612046FFF7B1
:102D900020FF20680169C943490609D4C168C943B5
:102DA000490605D46FF040010161204600F0E7F8C4
:102DB00020680169C94389060BD4C168C9438906E3
:102DC00007D46FF0200101612046BDE87040FFF795
:102DD00001BF70BD704770B504460D4694F83800C9
:102DE00001280DD0012684F83860022084F83900CB
:102DF00042B1042A1AD0082A2DD00C2A53D13EE021
:102E0000022070BD2946206801F022F920688169FE
:102E100041F0080181612068816921F0040181612C
:102E2000206881692A69114381613CE02946206854
:102E300001F042F92068816941F4006181612068F4
:102E4000816921F480618161206881692A6941EA90
:102E50000221816127E02946206801F067F9206896
:102E6000C16941F00801C1612068C16921F0040114
:102E7000C1612068C1692A691143C16113E0294613
:102E8000206801F08BF92068C16941F40061C161DB
:102E90002068C16921F48061C1612068C1692A6923
:102EA00041EA0221C161383466700020207070BD93
:102EB00010B50446002C03D094F8390010B107E097
:102EC000012010BD002084F83800204600F00CF8E6
:102ED000022084F83900211D206801F069F80120E2
:102EE00084F83900002010BD00B585B00068114994
:102EF00088421CD11048C16941F00201C161C16919
:102F000001F002010091816941F004018161806951
:102F100000F004000090C0200190022002900120E7
:102F200003900320049001A90448FFF74BF805B073
:102F300000BD0000000400400010024000080140F5
:102F40007047000010B504460122206801F074F8B3
:102F500008482168814202D00748814203D1486C69
:102F600040F4004048642068016841F001010160BC
:102F7000002010BD002C0140003401407047704714
:102F8000704790F83900704738B5044620680168EA
:102F9000C1F30001C26802F48072002904D01AB1A2
:102FA000E16B41F00101E1630168C1F34002416955
:102FB00001F0010122B119B1E26B42F00402E263B7
:102FC0000268C2F3800222B119B1E26B42F0020240
:102FD000E2630268C2F3C00222B119B1E16B41F0B1
:102FE0000801E1630168C1F34011C06800F02000EE
:102FF00019B110B1204601F046F920680168C1F30B
:10300000C011C06800F0800019B110B1204601F075
:1030100061FA20680168C1F38011C06800F04000C7
:1030200019B110B1204601F019F9E06B002809D060
:103030002068016840680090012084F8390020462B
:10304000FFF79EFF38BD70B50446002C04D094F8FD
:103050003900002510B106E0012070BD84F8385019
:10306000204600F021F8022084F839002068C16869
:1030700021F40051C160204601F05EF92068016929
:1030800021F4904101612068416921F02A014161E8
:103090002068C16841F40051C160E563012084F8F3
:1030A0003900002070BD000010B586B000681E49D0
:1030B000884236D11D48816941F0040181618169EE
:1030C00001F004010191816941F4804181618169CC
:1030D00001F480410191816941F0010181618069C0
:1030E00000F0010001904FF4007002900220039064
:1030F00001200490032005900D4C02A92046FEF704
:1031000061FF211502910021039102A92046FEF7DB
:1031100059FF2520FFF79EF8032211462520FFF7CF
:10312000A5F806B010BD00000038014000100240B4
:103130000008014090F83930012B03D0122B01D048
:103140000220704731B32AB390F83830012B23D0D6
:10315000012380F8383081628285C2850021C163F5
:1031600090F83920122A19D0222280F8392080F8CC
:1031700038100168CA6842F48072CA6001684A69FE
:1031800042F001024A610068C16841F02001C1605B
:10319000002070470120704702207047322280F8DB
:1031A0003920E4E730B50068124988420CD1124A50
:1031B0005088010408D41146440409784FF00003F4
:1031C00007D50A2901D0538030BD40F4004050801B
:1031D00030BD0D290AD0094DC0F30D042955401CFE
:1031E00080B25080C728F3D9538030BD40F480406E
:1031F000508030BD003801403400002038450020A8
:103200007047FEE770B586B01348816941F004014C
:103210008161816901F004010191816941F04001FE
:103220008161806900F04000019001200290002639
:103230000396022404940325059502A90748FEF786
:10324000C1FE1020029003960494059502A904483B
:10325000FEF7B8FE06B070BD001002400008014045
:103260000018014030B585B01748816941F0080168
:103270008161816901F008010091816941F040019B
:103280008161806900F040000090202401940120B9
:1032900002900390032004900C4D01A92846FEF7EC
:1032A00091FE01940A4C01A92046FEF78BFE0122F3
:1032B00020212846FEF795FF012220212046FEF717
:1032C00090FF05B030BD000000100240000C01402E
:1032D000001801402DE9FF4F95B082460C469946F3
:1032E000BAF8820601902146504600F0E5FB83467D
:1032F0002146504600F068FB0E900E9804F01AF834
:10330000FF4E4FF066352A46334603F05BFADFF88E
:10331000F4830022434601F027FD03F021FA07461B
:10332000484604F007F82A46334603F04BFA0022D9
:10333000434601F019FD03F013FA064639463046BC
:1033400004F0C2FA179904F095F8314604F0B1FA86
:103350000D90ED49E06A04F0AFF94FF07E57394621
:1033600004F014F80146384604F084F802900397FC
:10337000B4F94000064604F03FF9616B04F09CF993
:10338000394604F003F80490B4F94200801B04F0BD
:1033900033F9A16B04F090F9394603F0F7FF049973
:1033A00004F08AF90590BAF8140604F03DF90646CF
:1033B000DFF858934FF08F484E4504DD41463046C4
:1033C00004F082FA0646B4F9140004F015F9314607
:1033D00004F050F80C90BAF8800600F480504009D0
:1033E0000790BAF8100604F01FF90A90BAF85006D0
:1033F00004F01AF90B9000260DF12808C34958F87B
:103400002600884205DD4FF08F4104F05DFA48F850
:1034100026000DF128080C9958F8260004F04CF904
:1034200048F82600761C022EE8DB584603F082FF9F
:103430004FF06632B64B03F093FECDE9131005460C
:103440000E46E06903F076FF2A46334603F062FC3D
:103450000022B04B03F0B6F98046894605460E4679
:10346000AD490E9804F030FA1290216A04F024F964
:103470004FF07E5103F08AFF04F5005B0746BBF96D
:103480004C0A04F0B9F8394604F016F903F052FF7B
:103490002A46334603F03EFC05460E460A9803F0E2
:1034A00049FF2A46334603F05BFE03F059F90A90C0
:1034B00094F82510079881421BD145464E46BBF92A
:1034C0004E0A04F099F8394604F0F6F803F032FF9A
:1034D0002A46334603F01EFC05460E460B9803F0C1
:1034E00029FF2A46334603F03BFE03F039F90B90DF
:1034F0001EE045464E46BBF94E0A04F07DF8DBF867
:10350000501A03F043FF394604F0D6F803F012FFD7
:103510002A46334603F0FEFB05460E460B9803F0A1
:1035200009FF2A46334603F01BFE03F019F90B90FE
:103530000025E91705EB91629211520005EBD1606D
:10354000524202EB60104FFA80F805EBD570401044
:1035500040004042284480EA080042B2A81CC31739
:1035600000EB93708310E81CC61700EB9670A3EB7A
:10357000A003681CC61700EB967003EBA00005EBD8
:103580009171A0EBA100C8F10003012101EB4301FF
:10359000484340B20690079800287DD01046BAF8FC
:1035A0008216814279D13AF8150004F03DF8574966
:1035B000884203DD4FF08F4104F086F90C9904F046
:1035C0007BF8099004EB8500DDE91376814600F570
:1035D00080501190D0F8440E03F0ACFE32463B46CA
:1035E00003F098FB00224B4B03F0ECF80646DDE9B4
:1035F00011020F46D0F84412104604F05DF84FF067
:103600007E5103F0C3FE009004EB4500B0F9440C7A
:1036100003F0F2FF009904F04FF803F08BFE3246FE
:103620003B4603F077FB06460F46099803F082FEFF
:1036300032463B4603F094FD03F092F8064694F8B8
:1036400025100798814218D0069803F0D5FFDBF8C3
:10365000541A04F031F807464FF0FF3000EB4800F1
:1036600003F0CAFFDBF8581A04F026F8314603F0DD
:103670008DFE394604F028F906463046179903F0C6
:10368000F9FE064601990AA8A76950F821103846A4
:1036900004F012F8314601E09FE0E8E004F009F997
:1036A00009901298A16A04F007F84FF07E5103F0D8
:1036B0006DFE0646019804EB800000F50050D0F83E
:1036C000441A384603F0F8FFD9F8441004F0F1F832
:1036D000314603F0F1FF08900D99089803F0ECFFD4
:1036E000099903F053FE03F025FE06460F4608989D
:1036F00003F020FECDE90F100022084B10E000007F
:1037000066127140000010400000204200FEFF469B
:1037100066660A400000F03F0000C8410000084013
:1037200001F022FB32463B4603F0F4FA03F018F8AE
:103730008046206B03F0FEFD06460F46404603F030
:10374000F9FD01F0FFFF01F0FDFF32463B4603F0BB
:10375000E1FA03F005F806460D9803F0EBFD80460C
:103760008946304603F0E6FD06460F46206B03F01F
:10377000E1FD4FF06632424B03F0CCFA0022414BA0
:1037800003F0FCFBDDE90F3203F0C4FA32463B469E
:1037900003F018F806460F46099803F0CBFD3246B1
:1037A0003B4603F0CBF842464B4603F00BF801F0E2
:1037B000C9FF01F0C7FF4FF06632314B03F0D0FC78
:1037C00002F0CEFF0746B4F93E0003F015FF39467C
:1037D00004F03EF803D2002616E04046DFE6B4F9D6
:1037E000400003F009FF394604F032F801D2012607
:1037F0000AE0B4F9420003F0FFFE394604F028F86D
:1038000001D2022600E0032604EB4600B0F93C009A
:1038100003F0F2FE394604F04CF804EB8601C96A65
:1038200003F04AFF4FF07E5103F0B0FD074602A8B7
:1038300050F82610089803F03FFF394603F03CFF8C
:103840000146099803F016FE0D9903F09FFD03F061
:1038500071FD01F077FF01F075FF4FF06632084B04
:1038600003F07EFC02F07CFF229941F825006D1CDC
:10387000B5F5407FFFF65DAE19B0BDE8F08F0000F2
:10388000661271400000F03F0B464FF450724FF447
:10389000105100F069B970B505460C462846FDF791
:1038A00081FE002839D121462846FEF76DFB2146CE
:1038B0002846FEF705FB21462846FEF704F9214677
:1038C0002846FEF74BFB21462846FEF73FFB2146E4
:1038D0002846FEF701F921462846FEF713F921464E
:1038E0002846FDF76BFE21462846FEF75CFA214686
:1038F0002846FEF759F921462846FEF7E9F9214600
:103900002846FDF775FF21462846FDF715FF21469D
:103910002846BDE87040FEF739B870BD2DE9FC4778
:1039200081460D4600244FF400466B460122314685
:10393000484600F019F900282ED1BDF8000000F02B
:1039400008000028F1D04FF450774FF480681CE055
:1039500030223146484600F061F9411C1CD02B460C
:103960003A464146484600F0FFF8002814D16B461D
:1039700001223146484600F0F7F800280CD1BDF886
:10398000000000F00800641CE4B208B1052CDFD38D
:10399000042C03D96FF00700BDE8FC8701AB0122BE
:1039A00048F20D01484600F0DFF8BDF80410A5F814
:1039B0008016BDF8001001F00101A5F8821600285C
:1039C000EAD10846E8E700002DE9F04704468846BA
:1039D0004146204600F070F80646B4F8400603F071
:1039E00023FE05462F4F4FF08F49BD4204DD494667
:1039F000284603F069FF0546B4F8000603F014FEFC
:103A00000446BC4204DD4946204603F05DFF0446FF
:103A10002846D8F8101003F04FFE214603F0B6FCFC
:103A20000146284603F026FD03F084FC00221E4BCD
:103A300003F070F902F094FE8146B8F80C0003F030
:103A400019F904460D46304603F074FC4FF0663217
:103A5000164B03F085FB06460F46D8F8040003F02A
:103A600069FC32463B4603F055F90022104B02F048
:103A7000A9FE06460F46484603F05CFC32463B462C
:103A800002F05CFF22462B4603F06AFB02F068FE60
:103A9000D8F8081003F0EEFCBDE8F047054903F044
:103AA00075BC000000FEFF460000104166660A403B
:103AB0000000F03F0000C8412DE9F04104460F46E8
:103AC000B4F8540603F0B0FD064624498E4205DDE5
:103AD0004FF08F41304603F0F7FE0646B4F88006FB
:103AE000C0F3812003F0AFF802460B464FF0804848
:103AF0000020414601F038F904460D4697F82400AD
:103B000003F0B8F802460B460020414601F02CF9BC
:103B100022462B4602F012FF02F022FE0446B7F9BD
:103B2000000003F069FD0546B7F9020003F064FDEB
:103B300007463146204603F0BFFD394603F0C4FE78
:103B4000294603F097FC03F0F5FB4FF06632044B77
:103B500002F038FEBDE8F04102F002BE00FEFF4672
:103B600066660A4000F038BE2DE9F04107468846F7
:103B700016461D46002400F0DBFE7806000E00F01D
:103B8000A5FE00F015FF20B100F0F4FE0120BDE815
:103B9000F0814FEA182000F099FE00F009FF18B1FB
:103BA00000F0E8FE0220F2E708F0FF0000F08EFED1
:103BB00000F0FEFE18B100F0DDFE0320E7E700F0A4
:103BC000B7FE012000EB4700C0B200F07FFE00F01E
:103BD000EFFE18B100F0CEFE0420D8E74FF0FF3022
:103BE00000EB460708E0A74201D0012000E00020DA
:103BF00000F02EFE2855641CB4EB460FF3DB00F0FA
:103C0000B9FE002005E029184A782B5C4B702A5435
:103C1000801CB0EB460FF6DB0020B8E72DE9FC472F
:103C200080460F461446250A8DF80450E6B28DF8FA
:103C3000056000F07DFE4FEA4860000E00F046FE91
:103C400000F0B6FE4FF0FF3920B100F093FE484679
:103C5000BDE8FC87380A00F039FE00F0A9FE18B173
:103C600000F088FE4846F3E7F8B200F02FFE00F0BF
:103C70009FFE18B100F07EFE4846E9E7284600F0B6
:103C800025FE00F095FE18B100F074FE4846DFE70F
:103C9000304600F01BFE00F08BFE18B100F06AFE0B
:103CA0004846D5E700F066FE6B460122394640469D
:103CB000FFF75AFF08B14846CAE7BDF80000A04226
:103CC00002D06FF00100C3E70020C1E738B5054618
:103CD00048F20D046B46012221462846FFF744FFB7
:103CE000002807D1BDF8000040F480522146284644
:103CF000FFF794FF38BDF8B506464807840D48F233
:103D00000D056B46012229463046FFF72DFF00289E
:103D100009D1BDF8000020F46070204382B229462A
:103D20003046FFF77BFFF8BD00F062BA00F066BADC
:103D300000B540F2B630FFF7F7FF40F23C505DF8B7
:103D400004EBFFF7F3BFFEE770470907090E0028F1
:103D500006DA00F00F0000F1E02080F8141D704733
:103D600000F1E02080F800147047F0B505ACF0CC0D
:103D7000C0E90023C0E90245C0E90467002282616E
:103D8000C26102624262F0BD2DE9F04782461046F0
:103D90001946DDE9082303F0E3F904460D46DAE9A4
:103DA000060122462B4602F00DFD06460F46CAE9E3
:103DB0000601DAE908232046294603F0D1F9024634
:103DC0000B46CAE90845DAE9040102F0A3FF804680
:103DD0008946DAE9020132463B4602F09BFF06467D
:103DE0000F46DAE9000122462B4602F093FF3246E5
:103DF0003B4602F0E7FC42464B46BDE8F04702F086
:103E0000E1BC704700B585B00020029003900A48DD
:103E1000816941F008018161806900F0080000902B
:103E20004FF4006001900320049001A90348FEF7BD
:103E3000C9F805B000BD000000100240000C0140B0
:103E400000B585B0002003900A48816941F008015F
:103E50008161806900F0080000904FF400600190DB
:103E6000112002900320049001A90348FEF7AAF84C
:103E700005B000BD00100240000C0140704730B595
:103E80008FB00121059109040691002407940225B1
:103E90000C950D910E9005A8FEF784FB00B1FEE78E
:103EA0000F200090019502944FF4806003900494D9
:103EB00002216846FEF70CFA002800D0FEE70FB09A
:103EC00030BDFEF79BB900000D48016841F00101CB
:103ED000016041680B4A1140416001680A4A114083
:103EE0000160016821F480210160416821F4FE0134
:103EF00041604FF41F0181600449C00308607047AE
:103F0000001002400000FFF8FFFFF6FE08ED00E0A1
:103F10000148FEF7A8BE00004046002070B50446E8
:103F2000154A14481060516000259560D4601561F1
:103F30001046FEF7BDFF104960263C310E60640854
:103F40004C608D6000220C48FEF745FF00210A48B6
:103F5000FEF7F8FF08485830066044608560014667
:103F600004225838FEF737FFBDE8704004210248AC
:103F7000FEF7E8BF000400404046002010B50A4CA0
:103F80002068C068C043C00709D10848006980475D
:103F900021680020486221686420C862E0602168CE
:103FA0006FF00100086110BDB44600207C000020C5
:103FB0002DE9F04102681B4D1B4E1C4FDFF870C00D
:103FC0001C4B4FF08048A84209D0984207D040458A
:103FD00005D0B04203D0B84201D0604503D122F0F1
:103FE00070044A682243A84209D0984207D040454D
:103FF00005D0B04203D0B84201D0604503D122F4CD
:104000004074CA68224302608A68C2620A68826297
:10401000A84201D0984201D109690163012141619F
:10402000BDE8F081002C0140000400400008004081
:10403000000C00400034014010B501238B40046A9D
:104040009C430462036A8A401343036210BD00006C
:10405000F0B5026A22F001020262026A43688469D2
:1040600024F0700424F003050C682C4322F00205B0
:104070008A682A430E4E0F4FB04201D0B84205D194
:1040800022F00805CA682A4322F00402B04201D097
:10409000B84207D123F4807323F400734D691D43A4
:1040A0008B692B4343608461496841630262F0BDC0
:1040B000002C014000340140F0B5026A22F01002E9
:1040C0000262036A4268846924F4E04424F4407480
:1040D0000D6844EA052423F020038D6843EA0513A4
:1040E000104D114EA84201D0B04206D123F08003FA
:1040F000CF6843EA071323F04003A84201D0B0423F
:1041000009D122F4806222F400624D6942EA8502FC
:104110008D6942EA85024260846149688163036275
:10412000F0BD0000002C014000340140F0B5026AEF
:1041300022F480720262026A4368C46924F0700447
:1041400024F003050C682C4322F400728D6842EAC7
:104150000522104D104EA84201D0B04206D122F4E3
:104160000062CF6842EA072222F48062A84201D0AE
:10417000B04209D123F4805323F400534D6943EA3C
:1041800005138D6943EA05134360C4614968C1633F
:104190000262F0BD002C01400034014030B5026ADB
:1041A00022F480520262046A4268C36923F4E04345
:1041B00023F440730D6843EA052324F400548D680A
:1041C00044EA0534084DA84202D0084DA84204D163
:1041D00022F480424D6942EA85124260C361496817
:1041E0000164046230BD0000002C01400034014035
:1041F000014908607047000034040040014908602C
:10420000704700003804004038B504460D46104A97
:10421000D06940F00400D061D06900F00400009043
:10422000032211461E20FEF721F81E20FEF712F889
:10423000094A08481060556000219160D4601161FE
:104240001046FEF7C8FCBDE838400348FEF7FEBC48
:104250000010024000080040B446002010B501687C
:10426000CA6822F04002CA6090F83910322906D09C
:10427000012180F83910FEF7C3FF002010BD222174
:1042800080F83910F7E710B590F83910222903D0DB
:10429000322901D0022010BD8168B1F5805F11D0B4
:1042A000016919B30168496801F07F03816A4A1CFA
:1042B00082620B70C18D491E0904090CC1851CD096
:1042C000002010BD816A02693AB102685268D2B218
:1042D0000A80816A491C8162ECE702685268C2F375
:1042E00008020A80816A891C8162E3E701684A68E2
:1042F000816A4B1C83620A70DCE70168CA6822F09D
:104300002002CA6090F83910322910D00168CA68BA
:1043100022F48072CA6001684A6922F001024A618F
:10432000012180F83910FEF73DFF002010BD122159
:1043300080F83910F7E700002DE9F04104462068C5
:104340000169E26821F4405111430161A1682069CB
:104350000143606901432068C26841F20C639A43DB
:104360000A43C26020684169A26921F44071114387
:1043700041615749206864253226884254D1FEF7AE
:10438000B3F800EBC00101EB001061688900B0FBDD
:10439000F1F7FEF7A9F800EBC00101EB001061682E
:1043A0008900B0FBF1F0B0FBF5F06FF01801484365
:1043B00007EB800006EB0010B0FBF5F000F0F00713
:1043C000FEF792F800EBC00101EB00106168890074
:1043D000B0FBF1F0B0FBF5F007EB0017FEF784F847
:1043E00000EBC00101EB001061688900B0FBF1F83F
:1043F000FEF77AF800EBC00101EB0010616889005C
:10440000B0FBF1F0B0FBF5F06FF01801484308EB9A
:10441000800006EB0010B0FBF5F0216800F00F0003
:1044200038448860BDE8F081FEF748F800EBC00131
:1044300001EB001061688900B0FBF1F7FEF73EF870
:1044400000EBC00101EB001061688900B0FBF1F0E6
:10445000B0FBF5F06FF01801484307EB800006EB66
:104460000010B0FBF5F000F0F007FEF727F800EBC6
:10447000C00101EB001061688900B0FBF1F0B0FBF6
:10448000F5F007EB0017FEF719F800EBC00101EBA0
:10449000001061688900B0FBF1F8FEF70FF800EB3F
:1044A000C00101EB001061688900B0FBF1F0B0FBC6
:1044B000F5F06FF01801484308EB800006EB0010A0
:1044C000B0FBF5F0216800F00F0038448860A9E7E0
:1044D0000038014090F83910122903D0322901D058
:1044E000022070478168B1F5805F0CD0016A4A1CD8
:1044F0000262026809785160C18C491E0904090CE6
:10450000C18410D019E0016A02680988C1F308016A
:104510005160016919B1016A491C0162ECE7016A45
:10452000891C0162E8E70168CA6822F08002CA605B
:104530000068C16841F04001C16000207047000080
:1045400010B50848FEF720FD0648FEF71AFD0128C1
:10455000FAD1012204490348FEF7ECFD0028F8D106
:1045600010BD00000046002034000020FEE7490096
:1045700050EAC12018BF04204A0D18BF40F00100C6
:1045800040F2FF72B2EB515F08BF40F00200012819
:1045900008BF052070472DE9F0414F1E00EBC70111
:1045A0000446D1E9000115461E4637F006020DD03B
:1045B0002A46334602F0AEFB7F1E04EBC703D3E965
:1045C000002302F0FFF837F00602F1D1022F25D0C8
:1045D000042F13D0062F18BFBDE8F0812A463346BA
:1045E00002F098FBD4E90A2302F0ECF82A4633469D
:1045F00002F090FBD4E9082302F0E4F82A4633469F
:1046000002F088FBD4E9062302F0DCF82A463346A0
:1046100002F080FBD4E9042302F0D4F82A463346A2
:1046200002F078FBD4E9022302F0CCF82A463346A4
:1046300002F070FBD4E90023BDE8F04102F0C2B8FB
:10464000002213461046014902F078B90000F03FFD
:1046500002F0B8B8002213461046114602F06EB9B7
:1046600040F2013200204FF0E04103F0D6B90000E3
:10467000024A0020110703F0D0B9000001FDFFFF3E
:1046800030380A2801D20120704700207047704757
:1046900010B504460420FEF77AFA0148046010BD04
:1046A0003000002070B5054600244FF47A7603E010
:1046B000304600F005F8641CAC42F9D370BD000030
:1046C00070B500214FF0E0256C690A4A126850432A
:1046D000AB69AA699A42FCD003D2A3EB0203194446
:1046E00003E0A4EB02063344194413468142F0D39D
:1046F00070BD0000300000202DE9F04105460F4656
:1047000016469846002F04DCBDE8F0410CA0FBF7EC
:10471000BBBD286830600020C8F8000001240BE011
:1047200055F82400316803F093F804D255F82400BA
:104730003060C8F80040641CBC42F1DBBDE8F08189
:10474000417272617920697320656D7074792E0AE7
:104750000000000004490A685206FCD5024AC1B2B2
:10476000121D1160704700000038014070B5114DF6
:104770004FF40064002221462846FDF732FD00F088
:104780001BF80122960231462846FDF72AFD00F06B
:1047900013F8002231462846FDF723FD00F00CF8FF
:1047A000012221462846FDF71CFDBDE8704000F0BF
:1047B00003B80000000C014070B50024054D04E072
:1047C0000120FFF77DFF641CA4B228888442F7D340
:1047D00070BD00003C00002000B585B000200390B3
:1047E0000B48816941F008018161806900F008008F
:1047F00000904FF44060019011200290032004903B
:1048000001A90448FDF7DEFB00F0B4F805B000BDD7
:1048100000100240000C014070B50C4C0122D10286
:104820002046FDF7DEFCFFF7C7FF0122950229466F
:104830002046FDF7D6FCFFF7BFFF002229462046A1
:10484000FDF7CFFCBDE87040FFF7B6BF000C01409C
:104850002DE9F04780460024FFF7D4FA00251A4FCF
:104860004FF480664FF40069002231463846FDF768
:10487000B8FC0220FFF724FF012231463846FDF73D
:10488000B0FC6006040E49463846FDF7A3FC08B1AB
:10489000641CE4B20120FFF713FF6D1CEDB2082D7C
:1048A000E2D3002231463846FDF79BFCFFF7C8FAF9
:1048B000B8F1000F04D0FFF759FF2046BDE8F0879C
:1048C000FFF7AAFFF9E70000000C01402DE9F041D5
:1048D00005460024154E4FF400683715280605D507
:1048E000012241463046FDF77CFC04E000224146AF
:1048F0003046FDF776FCFFF75FFF01223946304670
:10490000FDF76FFCFFF758FF002239463046FDF7F0
:1049100068FC6806050E641CE4B2082CDED3414630
:104920003046BDE8F0410122FDF75BBC000C0140C0
:1049300070B501220E4DD40221462846FDF751FCE8
:104940000122960231462846FDF74BFCFFF734FF63
:10495000002221462846FDF744FCFFF72DFF0022E8
:1049600031462846FDF73DFCBDE87040FFF724BF07
:10497000000C014070B50D4D4FF40064002221463B
:104980002846FDF72EFCFFF717FF0122910228466B
:10499000FDF727FCFFF710FF012221462846FDF70F
:1049A00020FCBDE87040FFF707BF0000000C01408D
:1049B0002DE9F041002400250122154ED702394689
:1049C0003046FDF70EFCFFF7F7FE4FF4806801223A
:1049D00041463046FDF705FCFFF7EEFE07E0641C9C
:1049E000E4B2FA2C03D9FFF7C5FF012505E03946EB
:1049F0003046FDF7EFFB0028F1D10022414630465A
:104A0000FDF7EFFBFFF7D8FE2846BDE8F081000078
:104A1000000C014088B0FDF7F9FB4FF4E010FFF700
:104A20002EFA4820FFF734FE4FF4E13000F0B0FEDC
:104A30007D48416854208847FEF714FCFEF7E2FBEE
:104A4000472144F61F60FFF769FAFFF771F9774EC7
:104A5000D6E90801CDE90201D6E90601CDE9000158
:104A6000D6E904237248FFF780F9D6E90801CDE9B9
:104A70000201D6E90601CDE900016D48D6E904231B
:104A80002830FFF772F9FFF76DF80120FFF70AFEF3
:104A900003213320FFF72FF90120FFF703FE332016
:104AA000FFF714F90120FFF7FDFD62493320FEF7FF
:104AB000EBFEB060014660A0FBF7E6FB0120FFF7CC
:104AC000F1FDB16811B169A0FBF7DEFB72495948ED
:104AD000FEF7E1FEB060014670A0FBF7D5FB0120B8
:104AE000FFF7E0FDB16811B177A0FBF7CDFB002027
:104AF0000790069005900490DFF800924FF4407BF9
:104B00007F493320FEF70AFFB060002803DA014630
:104B10007CA0FBF7B9FB60497948FEF7CDFF5E4901
:104B20007748FEF751FF4FF0824102F0CDFE034679
:104B3000CDF80090584972487268FEF7CBFB5D468D
:104B400005AB07AA29466D48FFF7D6FD079802F086
:104B5000F1FB02460B4671A0FBF796FB0598C117C7
:104B600000EBD1614F1121F01F01A0EB010842467B
:104B7000394670A0FBF788FB0024DDF81CA059F82B
:104B80002410504602F0A0FE49F82400641CAC42F8
:104B9000F5DB04AB06AA29465848FFF7ADFD6E4980
:104BA00006988842ACDD384602F04DF86B4A002387
:104BB000CDE9003202460B461D48FFF7E5F8684F85
:104BC00000223B4602F0A6F804460D46308802F06B
:104BD00051F822462B4602F0C3FA02F007F8308063
:104BE000404602F030F85F4B0022CDE90023024638
:104BF0000F480B462830FFF7C7F800223B4602F06B
:104C000089F804460D46708802F034F822462B4697
:104C100002F0A6FA01F0EAFF70803088FFF784F80E
:104C20007088FFF783F86BE77C000020000000200D
:104C3000E8440020700100205468652066756E63AA
:104C400074696F6E204D4C5839303634305F44757E
:104C50006D7045452072657475726E207374617451
:104C60007573206973202564200A00006C6F6164ED
:104C70002073797374656D20706172616D65746500
:104C80007273206572726F72207769746820636F27
:104C900064653A25640D0A00741A00204D4C583999
:104CA000303634305F45787472616374506172617C
:104CB0006D657465727320737461747573206973A4
:104CC000202564200A000000506172616D657465E2
:104CD000722065787472616374696F6E20666169B1
:104CE0006C65642077697468206572726F722063E6
:104CF0006F64653A25640D0A00000000F00700208B
:104D0000F01300204765744672616D65204572722C
:104D10006F723A2025640D0A000000004D61786929
:104D20006D756D2076616C75653A20252E32660AA8
:104D300000000000506F736974696F6E206F662009
:104D40006D6178696D756D2069733A20282564203E
:104D50002C202564290A0000000020410000284082
:104D600000001C40000030402DE9F04D1D460C466F
:104D700098B0174621F0004123F00043002814BFEB
:104D80004FF0010C4FF0000C0CEB440CFE4A0CEB06
:104D900002064FEA620C66452BD33E0018BF01267F
:104DA00006EB45061644F94A964222D3F84A53EADE
:104DB000070C02D0944205D148B918B00020114622
:104DC000BDE8F08D002808BF4FF0000C01D04FF077
:104DD000010C0CEB440212F5001F0AD8002F14BF7F
:104DE0004FF0010C4FF0000C0CEB450212F5001FC8
:104DF00007D918B03A462B462146BDE8F04DFFF7DB
:104E000027BC0022DFF88CA3002CB8BF534526DA5C
:104E1000DFF884C36345A8BF022220DADFF870C33D
:104E20009C451CDCDFF874C30CEB235CBCF1140F55
:104E300008DDCCF1340627FA06FC0CFA06F6BE4271
:104E40000DD108E05FB9CCF1140623FA06FC0CFA88
:104E500006F69E4203D10CF00102C2F1020251EAB1
:104E6000000C19D1002D17DA002C18BF022A01D02E
:104E7000012A07D00220FBF798FB18B0BDE8F04DDF
:104E8000FFF7DEBB0220FBF790FBFFF7D9FB18B062
:104E900081F00041BDE8F08DB7F1000C6CD15345B5
:104EA00025D104F1804212F5801201BF00280020B4
:104EB000B74918B008BFBDE8F08DB548884207DC97
:104EC000002DA1BF6046294618B0BDE8F08D07E06F
:104ED000281E05DA80F0004118B06046BDE8F08D6C
:104EE000AF497944D1E9000118B0BDE8F08DDFF891
:104EF000A0C2634525D1002D1FDA19B1514512D149
:104F0000D8B909E0002840F0EC82A24A214618B046
:104F100062F31E01BDE8F08D0020214618B060F359
:104F20001E01BDE8F08D08DA18B02346BDE8F04D4B
:104F300002460020614601F001BD18B02146BDE8DF
:104F4000F08D514518DAB5F1804F0DD0A5F1005C18
:104F5000BCF1FF5C10D1B4F1000C0DDB18B0614660
:104F6000BDE8F04D00F0EEBB234618B00246BDE8A8
:104F7000F04D194601F0CEBE060024F0004C3BD1A6
:104F8000D9B1514533D1002C06DD002DA1BF002041
:104F9000514618B0BDE8F08D002C01DD002D1BDB63
:104FA000002C13DA002D11DB012A4FF0000014BF92
:104FB00078497C4918B0BDE8F08D022A18BF002C52
:104FC0000AD0012A08D1002C06DA0AE0002CB8BF6A
:104FD000002D11DA012A04D0002018B00146BDE8E6
:104FE000F08D18B000204FF00041BDE8F08DA1F128
:104FF0004050B0F17F601AD0012000EBE47050EA1D
:10500000020421D0624C521E4FF0000B104304BF2B
:105010004FF0000B644C654883427CDD644A654870
:1050200093421FDD884217DB002D25DB37E0002C83
:1050300000DA4AB1022A0CBF01204FF0FF3018B04D
:10504000BDE8F04D01F0FFBD0120FBF7AEFA18B04E
:10505000BDE8F04DFFF7FEBA4D4A8A4202DC002D52
:105060000ADC1CE0814202DA002D18DA04E0484B29
:10507000994220DD002D12DD0220FBF796FAFFF7A2
:10508000EFFA05460E46002253465846214601F0E7
:1050900041FE18B066F31E012846BDE8F08D0220DF
:1050A000FBF783FAFFF7E4FA0A46214618B062F3E9
:1050B0001E01BDE8F08D00223046614602F050F836
:1050C00080460E466FF0010202F0A7FC4FF0553209
:1050D000394B01F053FF4246334601F01BFE0022DC
:1050E000364B01F04BFF8246424633460491104650
:1050F000194601F00FFE5246049B01F00BFE8A4652
:1051000000904FF0C0422E4B4046314601F002FE67
:105110002C4A2B4B00E027E0CDE9060151460098D0
:1051200001F0F8FD82460191274A284B404631465E
:1051300001F0F0FD5246019B02F012F882460B4648
:1051400002460591DDE9060101F03CFBDDE906239D
:1051500000268846304602F003F85246059B01F0CF
:105160000DFF024600F07EB90020B1F5801F07DA7E
:1051700035223046614602F050FC06466FF034009E
:1051800000EB215024E00000FFFF1F00FFFF0F0095
:105190000000F03F0000F07F0000404301FCFFFFF3
:1051A000EA2C00000000F0FF0000F0BF0000E0412A
:1051B0000000F043FFFFEF3F5555D53F0000E03FB3
:1051C0004715F73FFE822B6544DF5DF80BAE543E7A
:1051D000A0F2FF300190C1F3130040F07F6141F075
:1051E00040510291FE498842D8BF002004DDFD49AC
:1051F0008142C8BF012001DD0D9008E000200D9024
:105200000198401C01900298A0F58010029002992C
:10521000F54878440B910D9900EBC100D0E90023CB
:105220000F9330460A920B9901F09AFFCDE90601DF
:10523000DDE90A2130460F9B01F0C4FA02460B4615
:105240000020EA4901F07AFB059102460B460090E6
:10525000DDE9060101F05EFD1490E5488A464FF055
:10526000000878440299006812904FF0005040EA1C
:1052700061010D980F9B01EB804000F50021099121
:105280000A9A129801F06CFF32460B9B01F076FEF1
:105290004246534601F03EFD0646029140465146C5
:1052A000099B129A01F036FDDDE9062301F066FE46
:1052B0003246029B01F054FF059B009A01F02AFD43
:1052C0000091149A049053461046194601F022FDAD
:1052D00006460246C7480B46029106217844FFF76E
:1052E0005AF9CDE90510029B32461046194601F0E5
:1052F00011FDDDE9053201F00DFD0591064653462D
:1053000040461946149A01F05DFA009B049A01F098
:1053100001FD3246059B01F055FACDE905104246E4
:1053200053461046194601F0F5FC0022B24B02919B
:105330000A9001F047FADDE9053201F043FA0E4622
:105340004246AD4B404601F00BFF029B0A9A01F02A
:1053500007FFDDE9053201F011FE424602910A9095
:1053600033461046514601F0D5FCCDE906015346BF
:10537000149A02990A9801F0CDFC8A4602903346AD
:1053800042460099049801F0C5FC5346029A01F088
:1053900019FA82460B4602460591DDE9060101F045
:1053A00011FADDE9062300208846064601F0D8FE02
:1053B0005246059B01F0E2FD824609914FF06042A2
:1053C0008E4B3046414601F0A5FC049006918C4A74
:1053D0008A4B5046099901F09DFC82460291894A08
:1053E000894B3046414601F095FC5246029B01F044
:1053F000E9F9864B7B440D9A03EBC203D3E9002302
:1054000001F0E0F90E900791019801F01CFC059164
:10541000DDE9061382460E9A049801F0D3F97C4A1E
:105420007A440D9B02EBC303D3E90023009302925D
:1054300001F0C8F95246059B01F0C4F900268846E0
:1054400052463046059B01F08BFE009B029A01F00C
:1054500087FE069B049A01F083FE079B0E9A01F0DB
:105460008DFD024600200B4602903846294601F089
:1054700051FC824601912B4638461946029A01F0AA
:105480006FFE3246434601F045FC5246019B01F057
:1054900099F907468A46324643462946029801F062
:1054A00039FC05460E463A46534601F08BF9594AF7
:1054B0008846914221DBA8EB020353EA000210D197
:1054C0002A46334601F04CFECDE90401524A534BC3
:1054D0003846514601F076F9DDE9042301F018FD64
:1054E00021D20220FBF761F8FFF7BAF80A462146FD
:1054F00018B062F31E01BDE8F08D494B28F0004260
:105500009A4210D3474A08EB020353EA00027FF4A1
:10551000C6AD2A46334601F023FE3A46534601F013
:10552000F7FC7FF6BCAD0022019228F000403E4916
:105530003E4A01EB2051824223DA481C4FF480118D
:1055400021FA00F040443A4AC0F30A517A44394BF8
:10555000A1F2FF31CB4020EA0303C0F3130040F473
:105560008010C1F11401C84012680190B8F1000F19
:10557000BCBF404201902846314601F0F1FD05468E
:105580000E462A4633463846514601F01BF94FF085
:1055900000084246284B4046059101F0BBFBCDE98F
:1055A0000601264A264B4046059901F0B3FB0091BF
:1055B00002902A4633464046059901F0D1FD3A460D
:1055C000534601F0DBFC1F4A1F4B01F0A3FB009B7D
:1055D000029A01F0F7F80746884602460B4635E086
:1055E0008E9803007AB60B00322900000000F03FCD
:1055F0006A290000982800000000084009C7EE3F13
:10560000FD033ADCF5015B14E02F3EBE702700007D
:105610003427000000009040FE822B654715973C20
:1056200000CC904000346F3F01FCFFFF0000E03FE2
:1056300080260000FFFF0F00432EE63F396CA80CC8
:10564000615C20BEEF39FAFE422EE63FDDE906013D
:1056500001F0B8F8DDE9062305460E4601F080FDAD
:105660003A46434601F08AFC0F462A4633460090EC
:105670001046194601F04EFB824602462E488846E7
:105680000B4605217844FEF786FF5246434601F05B
:1056900041FB2A46334601F071FC80468A463B4670
:1056A00028463146009A01F035FB3B46009A01F04E
:1056B00089F80691009000224FF080434046514601
:1056C00001F04EFD0F460C904246534628463146A7
:1056D00001F020FB3B460C9A01F030F9069B009A42
:1056E00001F03EFD2A46334601F03AFD0022134BFD
:1056F00001F044FC054601980E4601EB00510815E7
:10570000002810DC28463146019A02F086F9FEF79F
:105710002EFF042808BFFEF7ABFF28463146019A4A
:1057200002F07BF905460B4618B02A46584621463A
:10573000BDE8F04D01F0EEBA202500000000F03F7A
:10574000006870472DE9F04106460F4601F022FC43
:10575000041E0D4618BF0120284320F00040C0F170
:105760007F6000F1E040C00F0ED0301C18BF012058
:10577000384320F00040C0F17F6000F1E040C00FEE
:1057800004BF0120FAF711FF20462946BDE8F08149
:1057900010B50B49094A0A60486000208860C8605B
:1057A000086188610C2048610846FDF74CFCBDE8A3
:1057B0001040012203490248FDF7BCBC00380140FB
:1057C000004600203400002070B594B0064612ABAD
:1057D00011AA08A9304600F0E7F9002822D1139059
:1057E0001D4C042513E0216805EBC00012AB0858DE
:1057F00010AA694600F0D8F9002813D108A9684614
:1058000000F026FC80B19DF84C00401C1390217DD7
:105810009DF84C008142E6D8207D9DF84C108842CE
:105820000ED1042014B070BD9DF840009DF84410C6
:10583000884201D90220F5E79DF84C00A075EBE7FE
:1058400013A9304600F06AFA0028EBD19DF84C000D
:1058500060750020E6E700007C0000202DE9F041A3
:105860009AB0844EB57D307DA84271D9042130684C
:1058700001EBC50106AB405807AA08A900F094F94E
:1058800008A97DA0FAF700FD00240DF1400832E0E0
:10589000308B0121A140084217D0222178A0FAF7CD
:1058A000F3FC204600F0AAFA8119243175A0FAF71A
:1058B000EBFC222172A0FAF7E7FC204600F09EFAEA
:1058C0003044243048F824000BE0204600F096FADB
:1058D0003044416A48F82410F07D00B36AA0FAF71A
:1058E000D3FC9DF81C00401E844202D068A0FAF749
:1058F000CBFC641CE4B29DF81C008442C8D365A0B4
:10590000FAF7C2FC00F0C0FA707D0B2810D2DFE875
:1059100000F00A10172028303A46546476005EA042
:10592000FAF7B2FCDDE7306850F8350080470746EB
:1059300078E0306850F8351010988847074671E0D5
:10594000306850F83520DDE910019047074669E0DE
:1059500081E0306850F8353010A807C898470746EE
:1059600060E0306850F8354010A80FC8A0470746DF
:1059700058E014980090306850F8354010A80FC8CF
:10598000A04707464EE0DDE91401CDE9000130688B
:1059900050F8354010A80FC8A047074642E0DDE99F
:1059A00015211498CDE901210090306850F8354058
:1059B00010A80FC8A047074634E0DDE91610DDE95E
:1059C0001423CDE90210CDE90023306850F83540AA
:1059D00010A80FC8A047074624E0DDE91523DDE93C
:1059E0001710CDE90123CDE9031014980090306819
:1059F00050F8354010A80FC8A047074612E0DDE96F
:105A00001810CDE90410DDE91623DDE91401CDE914
:105A10000223CDE90001306850F8354010A80FC8C6
:105A2000A047074600F0FCF99DF81800012815D0A2
:105A30001AA0FAF729FC96F8EC0000280BD0D6F84B
:105A4000F0000A21B0FBF1F201FB1202B0FBF1F110
:105A500013A0FAF719FC1AB0BDE8F081F07D20B16F
:105A6000394617A0FAF710FCE5E7394617A0FAF710
:105A70000BFCE0E77C0000200D0A257328000000E5
:105A800025630000257300003058255800000000F1
:105A90002C00000029000000256C64003B0D0A006A
:105AA00046756E6374696F6E2052756E2054696D11
:105AB000653A25642E2531646D730D0A00000000DF
:105AC0003D305825583B0D0A000000003D256C75FF
:105AD0003B0D0A00F0B500250026002700240378BE
